:020000040800F2
:10000000F8060020A1010008A9130008AB1300089E
:10001000AF130008B3130008B71300080000000076
:10002000000000000000000000000000BB130008FA
:10003000BD13000800000000BF130008C113000832
:10004000BB010008BB010008BB010008BB010008A0
:10005000BB010008BB010008BB010008BB01000890
:10006000BB010008BB010008BB010008BB01000880
:10007000BB010008BB010008BB010008BB01000870
:10008000BB010008BB010008BB010008BB01000860
:10009000BB010008BB010008BB010008BB01000850
:1000A000BB010008BB010008BB010008BB01000840
:1000B000BB010008BB010008BB010008BB01000830
:1000C000BB010008BB010008BB010008BB01000820
:1000D000BB010008A5160008BB010008BB01000811
:1000E000BB010008BB010008BB01000800F002F8DA
:1000F00000F047F80AA090E8000C82448344AAF17B
:100100000107DA4501D100F03CF8AFF2090EBAE878
:100110000F0013F0010F18BFFB1A43F0010318473B
:1001200084400000A4400000103A24BF78C878C181
:10013000FAD8520724BF30C830C144BF04680C60ED
:10014000704700000023002400250026103A28BF35
:1001500078C1FBD8520728BF30C148BF0B60704739
:10016000662903F01187002070471FB501F0C8FE13
:1001700004000020002103F079F9E0601FBD10B5F4
:1001800010BD01F0C1FF1146FFF7EFFF01F01AF9B2
:1001900001F0DFFF03B4FFF7F2FF03BC01F024FA24
:1001A0000948804709480047FEE7FEE7FEE7FEE70B
:1001B000FEE7FEE7FEE7FEE7FEE7FEE70448054947
:1001C000054A064B70470000BF020008ED0000081A
:1001D000F8000020F8060020F8020020F8020020B5
:1001E0000CB50020019000906C48006840F480300D
:1001F0006A49086000BF6948006800F40030009058
:100200000198401C0190009818B90198B0F5A06FB2
:10021000F1D16248006800F4003010B10120009074
:1002200001E0002000900098012843D15C4800685C
:1002300040F010005A4908600846006820F00300AA
:1002400008600846006840F00200086053484068B3
:10025000524948600846406848600846406840F493
:10026000806048600846406820F47C10486008467A
:10027000406840F4E81048600846006840F080702C
:10028000086000BF4548006800F000700028F9D001
:100290004248406820F003004049486008464068F2
:1002A00040F00200486000BF3C48406800F00C008D
:1002B0000828F9D10CBD10B5FFF792FF10BD10B59D
:1002C0003648006840F0010034490860084640683C
:1002D00034490840314948600846006832490840BE
:1002E0002E4908600846006820F48020086008460F
:1002F000406820F4FE0048604FF41F008860FFF75C
:10030000DAFF4FF000602949086010BD10B50021E8
:1003100000200022214B5B6803F00C0121B104296D
:1003200006D0082928D107E0214B224C236027E082
:100330001F4B204C236023E0184B5B6803F47010C4
:10034000164B5B6803F48032022303EB904022B922
:10035000194B4343174C23600DE0104B5B6803F4CB
:10036000003323B1144B4343124C236003E0104B82
:100370004343104C236003E00D4B0E4C236000BF41
:1003800000BF064B5B68C3F303130C4CE15C094BE5
:100390001B68CB40074C236010BD000000100240DA
:1003A000002002400000FFF8FFFFF6FE08ED00E02D
:1003B00000127A000000002000093D000400002027
:1003C00031490143314A1160704770B50021002363
:1003D0000F22C47804B32D4C246804F4E064C4F5FF
:1003E000E064210AC1F10403CA40447804FA03F12D
:1003F0008478144021430901254C0678A1550478DE
:1004000004F01F050124AC4005786D11AD0005F125
:10041000E025C5F8004109E0047804F01F05012437
:10042000AC401C4D0678761145F8264070BD1A4A3E
:100430000A400243154B1B1F1A60704739B1134A1B
:10044000121D12680243114B1B1D1A6006E00F4A71
:10045000121D126882430D4B1B1D1A607047042841
:1004600008D14FF0E021096941F004014FF0E0228A
:10047000116107E04FF0E021096921F004014FF01C
:10048000E0221161704700000000FA050CED00E069
:1004900000E400E080E100E080FFFF1F10B50446AB
:1004A000CC48844208D10121042000F02FFD002116
:1004B000042000F02BFD46E0C748844208D101210A
:1004C000082000F023FD0021082000F01FFD3AE085
:1004D000C248844208D10121102000F017FD0021FC
:1004E000102000F013FD2EE0BD48844208D1012108
:1004F000202000F00BFD0021202000F007FD22E06D
:10050000B848844208D10121402000F0FFFC0021BE
:10051000402000F0FBFC16E0B348844208D10121E2
:10052000802000F0F3FC0021802000F0EFFC0AE0C6
:10053000AE48844207D10121801500F0E7FC00217C
:10054000A01500F0E3FC10BD10B50121084600F035
:10055000DDFC0021012000F0D9FC10BD2DE9F041A7
:10056000024600250026002000230024002791F8E1
:1005700003C00CF00F0591F803C00CF0100CBCF197
:10058000000F03D091F802C04CEA050591F800C0B5
:10059000BCF1000F31D0146800202BE04FF0010CAB
:1005A0000CFA00F3B1F800C00CEA03069E4220D119
:1005B00083004FF00F0C0CFA03F7BC4305FA03FC61
:1005C0004CEA040491F803C0BCF1280F06D14FF0A7
:1005D000010C0CFA00FCC2F814C00AE091F803C048
:1005E000BCF1480F05D14FF0010C0CFA00FCC2F829
:1005F00010C0401C0828D1D31460B1F800C0BCF171
:10060000FF0F34DD546800202EE000F1080C4FF09D
:10061000010808FA0CF3B1F800C00CEA03069E4288
:1006200021D183004FF00F0C0CFA03F7BC4305FAFD
:1006300003FC4CEA040491F803C0BCF1280F05D177
:1006400000F1080C08FA0CF8C2F8148091F803C005
:10065000BCF1480F07D100F1080C4FF0010808FA6F
:100660000CF8C2F81080401C0828CED35460BDE8B6
:10067000F0814FF6FF710180022181700421C17069
:1006800070470246002093680B400BB1012000E048
:10069000002070470146886880B2704702460020FB
:1006A000D3680B400BB1012000E0002070470146E9
:1006B000C86880B2704701617047416170470AB1F4
:1006C000016100E041617047C16070474FF48032C2
:1006D0000A43826181618261826982697047024650
:1006E0000020434B18684FF68073184040EA021010
:1006F00008433F4B186070473E49C8617047F0B5EA
:100700000A46002300240021002500F00046B6F12F
:10071000004F02D1364EF16901E0354E7168C0F3E9
:10072000034583B200F44016B6F5401F08D121F00E
:1007300070612F4E766826F070662D4F7E6012E055
:1007400000F48016B6F5801F06D1032606FA05F4DC
:10075000A14341F0706106E0460D360103FA06F64A
:10076000B14341F0706122B1460D360103FA06F63D
:10077000314300F00046B6F1004F02D11C4EF1614A
:1007800001E01B4E7160F0BD30B500228B071C0FDD
:100790000F2303FA04F2164B08338C1053F824305D
:1007A0009343134C08348D1044F8253023468C10A5
:1007B00053F824308C07240F00FA04F423430C4C24
:1007C00008348D1044F8253030BD0A49DC3108600A
:1007D0007047000000080140000C0140001001407B
:1007E0000014014000180140001C0140002001409D
:1007F000000001400000204210B50446F748844242
:1008000009D10121480500F08EFB00214FF40010B2
:1008100000F089FB08E00121880500F084FB00213D
:100820004FF4800000F07FFB10BD2DE9F04385B050
:1008300004460D460026B1460427DFF8A483A688A7
:100840004FF6C0700640684600F0D9FADDF808801F
:10085000E448B8FBF0F01FFA80F946EA0906A680E2
:1008600020884FF6FE71084020800026DE49286867
:1008700088420CD828684000B8FBF0F087B2042FFB
:1008800000DA04273E4309F10100208427E0E888CC
:100890004BF6FF71884206D1286800EB4000B8FB98
:1008A000F0F087B209E0286800EBC00101EB00100E
:1008B000B8FBF0F087B247F48047C7F30B0008B9E4
:1008C00047F0010747F4004006434FF4967009FBD8
:1008D00000F04FF47A7190FBF1F0401C2084A68365
:1008E000208840F00100208026884FF6F530064031
:1008F000A8886989084306432680A889298908436E
:10090000208105B0BDE8F08341F28831016000210B
:1009100081804BF6FF71C1800021018141814FF43C
:1009200080418181704721B1028842F0010202803A
:1009300004E002884FF6FE731A400280704721B12E
:10094000828842F40062828004E082884FF2FF7362
:100950001A408280704721B1828842F4805282809E
:1009600004E082884EF6FF731A408280704721B1FE
:10097000028842F48072028004E002884FF6FF632E
:100980001A400280704721B1028842F4007202804E
:1009900004E002884FF6FF531A400280704721B1ED
:1009A000028842F48062028004E002884FF6FF333E
:1009B0001A40028070470A46002181894FF6017370
:1009C000194002F0FE0319438181704721B18289E9
:1009D00042F00102828104E082894FF6FE731A40E0
:1009E0008281704721B1028842F04002028004E017
:1009F00002884FF6BF731A40028070471AB183888D
:100A00000B43838002E083888B438380704701829D
:100A100070470146088AC0B2704712B141F0010127
:100A200002E04FF6FE7319400182704708B5024696
:100A300000200090009200980844009000980088E0
:100A400008BD21B1028842F40042028003E002881E
:100A5000C2F30E0202807047B1F5006F04D1028824
:100A600042F40062028004E002884FF2FF731A40F1
:100A700002807047B1F5005F04D1028842F4005251
:100A8000028004E002884DF6FF731A40028070472E
:100A900021B1028842F48052028004E002884EF6BE
:100AA000FF731A4002807047B1F5006F04D10288CD
:100AB00042F40062028004E002884FF2FF731A40A1
:100AC0000280704721B1028842F02002028004E0D7
:100AD00002884FF6DF731A40028070470146088B88
:100AE0000012704721B1028842F01002028004E037
:100AF00002884FF6EF731A400280704721B90288CE
:100B000042F08002028004E002884FF67F731A40B0
:100B100002807047B1F5804F05D0828B4BF6FF7392
:100B20001A40828303E0828B42F4804282837047C2
:100B300070B502460024002500230020958A138BFF
:100B40001B0445EA030626F07F4404EA01068E42B0
:100B500001D1012000E0002070BD10B50146002049
:100B6000002300228B8A0A8B120443EA020424F039
:100B70007F4010BD0CB50246002000230193009376
:100B800000920B0F019321F07F41019B1BB1009B51
:100B90001433009303E0090C009B18330093009B6F
:100BA0001B680B400BB1012000E000200CBD0022AF
:100BB00021F07F42D3438382704730B50246002044
:100BC0000023948801F0E06504EA154321F07F4199
:100BD000948A0C4054B14BB1012008E0005400400D
:100BE00000127A0040420F00A0860100002030BDB4
:100BF000002221F07F42D34383827047DF480068A0
:100C000040F00100DD49086008464068DC490840C2
:100C1000DA49486008460068DA490840D749086060
:100C20000846006820F4802008600846406820F4E8
:100C3000FE0048604FF41F0088607047CF49096884
:100C400021F48031CD4A11601146096821F48021D8
:100C50001160B0F5803F03D0B0F5802F0ED106E0D3
:100C6000C649096841F48031C44A116007E0C349AC
:100C7000096841F4A021C14A116000E000BF00BF33
:100C8000704710B501460022002300204A11012AB6
:100C900002D1BA4C236806E0022A02D1B74C236A7B
:100CA00001E0B64C636A01F01F02012494401C402D
:100CB0000CB1012000E0002010BD38B500200090EC
:100CC0000024002500BF3120FFF7DBFF0546009818
:100CD000401C00900098B0F5A06F01D0002DF2D01C
:100CE0003120FFF7CEFF08B1012400E000242046A8
:100CF00038BD01460020A14A106820F0F80040EA03
:100D0000C10010607047A04908607047024600208B
:100D10009A4B586820F47C1042EA01031843974B21
:100D20005860704798490866704701460020934A0A
:100D3000506820F003000843506070478F484068B7
:100D400000F00C007047014600208C4A506820F0EB
:100D5000F00008435060704701460020874A506801
:100D600020F4E06008435060704701460020834A49
:100D7000506820F4605040EAC1005060704729B1CB
:100D80007E4A527A02437D4B5A7204E07B4A527A81
:100D900082437A4B5A7270477B49D831086070475A
:100DA00001460020754A506820F4404008435060D6
:100DB00070470021714A20321170704A82F8201069
:100DC000012802D004280AD104E001216B4A203214
:100DD000117005E00521694A2032117000E000BF62
:100DE00000BF70476949086070476449096A014358
:100DF000624A11627047654944390860704730B5EE
:100E000000210022002400235C4D6D6805F00C01D8
:100E100021B1042905D0082923D105E05C4D0560E6
:100E200022E05B4D05601FE0544D6D6805F47012C3
:100E3000524D6D6805F48034022505EB92421CB9D1
:100E4000544D554305600BE04C4D6D6805F400357D
:100E50001DB1504D5543056002E04D4D55430560B1
:100E600002E04B4D056000BF00BF444D6D6805F0CA
:100E7000F0010909484D6B5C0568DD4045603F4D58
:100E80006D6805F4E061090A434D6B5C4568DD401F
:100E900085603A4D6D6805F46051C90A3E4D6B5C42
:100EA0004568DD40C560354D6D6805F44041890BEE
:100EB0003A4D6B5CC568B5FBF3F5056130BD29B1F2
:100EC0002E4A526902432D4B5A6104E02B4A526963
:100ED00082432A4B5A61704729B1284A92690243DA
:100EE000264B9A6104E0254A92698243234B9A611A
:100EF000704729B1214AD2690243204BDA6104E0EC
:100F00001E4AD26982431D4BDA61704729B11B4AE0
:100F1000D2680243194BDA6004E0184AD26882436F
:100F2000164BDA60704729B1144A12690243134B19
:100F30001A6104E0114A12698243104B1A6170472A
:100F400012494039086070470F49C86470470B491F
:100F5000C87170470948406A40F08070074948628C
:100F6000704701460020054A92680A400AB10120F4
:100F700000E000207047014988727047001002406D
:100F80000000FFF8FFFFF6FE0000424280044242EC
:100F900000127A0000093D00140000202400002007
:100FA00010B50446FB48844209D101218803FFF7AC
:100FB000ADFF00214FF48040FFF7A8FF32E0F64874
:100FC000844209D101214804FFF7ADFF00214FF40D
:100FD0000030FFF7A8FF25E0F048844209D1012145
:100FE0008804FFF7A0FF00214FF48020FFF79BFF4C
:100FF00018E0EB48844209D10121C804FFF793FFB0
:1010000000214FF40020FFF78EFF0BE0E5488442FB
:1010100008D101210805FFF786FF00214FF4801059
:10102000FFF781FF10BD2DE9F04786B005460E465B
:101030000024A24600BFA1460027B08900B100BF2E
:101040002F462C8A4CF6FF700440F08804432C8213
:10105000AC894EF6F3100440B08831890843718999
:1010600008430443AC81AC8A4FF6FF400440B0898A
:101070000443AC8201A8FFF7C2FEC648874202D1F2
:10108000DDF810A001E0DDF80CA0A88900F4004014
:1010900040B10AEBCA0000EB0A1031684900B0FB0E
:1010A000F1F807E00AEBCA0000EB0A10316889008A
:1010B000B0FBF1F86420B8FBF0F0040120096421D2
:1010C00001FB1089A88900F4004040B1322000EBF8
:1010D000C900B0FBF1F000F00700044308E0322043
:1010E00000EB09106421B0FBF1F000F00F000443A5
:1010F0002C8106B0BDE8F0874FF416510160002145
:101100008180C18001810C21418100218181704752
:1011100010B502460020108A4FF2FF0318400B88DA
:101120004C8823438C882343CC8823431843108264
:1011300010BD0021018041808180C180704721B1B4
:10114000828942F40052828104E082894DF6FF7365
:101150001A4082817047F0B503460024002600251E
:10116000002040F66A17B94200D100BF1846C1F30B
:10117000421401F01F06012707FA06F5012C01D1E0
:101180000C3004E0022C01D1103000E014301AB110
:1011900007682F43076002E00768AF430760F0BDB0
:1011A0001AB1838A0B43838202E0838A8B43838252
:1011B0007047028A4FF6F0731A400282028A0A438D
:1011C0000282704782894FF2FF731A4082818289BE
:1011D0000A438281704721B1828942F002028281F2
:1011E00004E082894FF6FD731A4082817047028ABB
:1011F0004FF6DF731A400282028A0A430282704766
:1012000021B1028A42F48042028204E0028A4BF653
:10121000FF731A4002827047C1F308028280704750
:1012200001468888C0F308007047818941F00101B8
:1012300081817047028BD2B20283028B42EA012283
:1012400002837047028B02F47F420283028B0A43BF
:101250000283704721B1828A42F02002828204E038
:10126000828A4FF6DF731A408282704721B1828AE8
:1012700042F01002828204E0828A4FF6EF731A4035
:101280008282704721B1828A42F00802828204E0A1
:10129000828A4FF6F7731A408282704721B18289A1
:1012A00042F40042828103E08289C2F30E0282810D
:1012B000704721B1828A42F40062828204E0828A0D
:1012C0004FF2FF731A4082827047828A4FF6FB7397
:1012D0001A408282828A0A438282704721B1828ABE
:1012E00042F00202828204E0828A4FF6FD731A40C5
:1012F0008282704702460020B1F5007F00D100BF16
:1013000013880B400BB1012000E00020704701F46E
:101310000072B2F5007F00D100BFCA43028070475F
:1013200070B50246002400230025002040F66A160E
:10133000B14200D100BFC1F3421501F01F030126E5
:1013400006FA03F3012D02D19689334006E0022DFF
:1013500002D1168A334001E0968A33400C120126EE
:1013600006FA04F41688344013B10CB1012000E0F1
:10137000002070BD10B50022002340F66A14A1427F
:1013800000D100BF0A1201249440A3B2DC430480C0
:1013900010BD0000003801400044004000480040FB
:1013A000004C004000500040704700BFFEE700BF07
:1013B000FEE700BFFEE700BFFEE7704770477047DB
:1013C0007047000090B000BF00218846894600BFEA
:1013D00000BF0C460D4600BF8A468B4600F094F8CD
:1013E00000F0FCF84FF4165000F00DF900F06CF925
:1013F00000F0E0F979E04FF0000B47E04FF0000A11
:1014000012E000F057FACDE90E0140464946DDE909
:101410000E2302F041F88046894600F0CBF900BF68
:101420000AF1010000F0FF0ABAF1140FE9DB002213
:101430002E4B4046494602F0EBF8CDE90C012C4A10
:101440002C4BDDE90C0102F08FFA0022274BCDE98D
:10145000000102F089FA02460B46CDE902010020A4
:10146000254902F0D5F8CDE90A0120462946DDE9F3
:101470000A2302F011F804460D46002188468946E9
:1014800000BF00BF0BF1010000F0FF0BBBF10A0F22
:10149000B4DB0022194B2046294602F0B9F8064673
:1014A0000F4632463B4616A105A800F095FA4FF0CC
:1014B000000A06E005A800F083FA0AF1010000F036
:1014C000FF0ABAF10A0FF5DB4FF0000A07E04EF60B
:1014D000602000F056F80AF1010000F0FF0ABAF1AE
:1014E000960FF4DB0024254600BF84E7000034405B
:1014F0003A2C30793BF7353E0000F03F00002440A5
:101500002325663B0A00000010B56FF00400FEF7CB
:10151000A6FF2E4800682E49B0FBF1F02D49087057
:101520000846007800EB4001C1EBC0104FF6FF7198
:1015300001EAC0002849088010BD0146254A1278FA
:101540004A434FF0E0235A6100229A611A46126919
:1015500042F001021A6100BF4FF0E022106900F072
:1015600001021AB100F48032002AF5D04FF0E022D7
:10157000126922F001024FF0E0231A6100229A6101
:1015800070470146144A12884A434FF0E0235A61DB
:1015900000229A611A46126942F001021A6100BFE4
:1015A0004FF0E022106900F001021AB100F480321D
:1015B000002AF5D04FF0E022126922F001024FF02C
:1015C000E0231A6100229A617047000000000020A9
:1015D00000127A00280000202A00002010B54FF4E5
:1015E000A060FEF7EDFE10BD014600BF704700BFD2
:1015F000334A128802F04002002AF9D0C2B2304BBE
:101600001B1D1A80704710B586B00446012144F2B4
:101610000400FFF761FC2A48FFF7C2FC4FF400709A
:10162000ADF8140003208DF8160018208DF817006F
:1016300005A92448FEF792FF4FF48060ADF814002E
:1016400004208DF8170005A91E48FEF787FF252006
:101650008DF8000003208DF801008DF802000120B4
:101660008DF803006846FEF7B0FE01940020ADF847
:101670000800ADF80A00ADF80C00ADF810000C2021
:10168000ADF80E0001A90E48FFF7CDFC012240F293
:1016900025510B48FFF75FFD01210948FFF74FFD7A
:1016A00006B010BD10B540F225510548FFF738FED1
:1016B00020B10348FFF7B4FDC4B200BF10BD000065
:1016C000003801400008014000B585B001214805FF
:1016D000FFF70FFC01210820FFF7FEFBC020ADF84B
:1016E000000003208DF802001C208DF803006946DD
:1016F000A848FEF733FFA848FFF77EF80020ADF8B2
:1017000008004BF6FF70ADF80A003020ADF80C0071
:101710004FF48060ADF80E000001ADF810009F4856
:10172000019001219C48FFF7FEF801A99A48FFF7B4
:101730007CF805B000BD70B504460D4600BF4FF4FF
:1017400000319548FFF716FA0028F8D10121924898
:10175000FFF70DF900BF92498F48FFF7E9F900281C
:10176000F9D000221A218C48FFF757F900BF8D49A4
:101770008948FFF7DDF90028F9D0E1B28648FFF784
:1017800046F900BF8749891C8348FFF7D1F9002833
:10179000F8D0E9B28048FFF73AF900BF8149891CC7
:1017A0007D48FFF7C5F90028F8D001217A48FFF7F6
:1017B000EAF870BD10B50A20FFF7E3FEFA21842095
:1017C000FFF7B9FF70218320FFF7B5FF02218220C8
:1017D000FFF7B1FF00218720FFF7ADFF0021862032
:1017E000FFF7A9FF00218520FFF7A5FFFF21892032
:1017F000FFF7A1FF00218820FFF79DFF0F218B201D
:10180000FFF799FF00218A20FFF795FFB021802084
:10181000FFF791FF00218120FFF78DFF1721802026
:10182000FFF789FF0520FFF7ACFE27218020FFF797
:1018300082FF0520FFF7A5FE10BD10B50121564817
:10184000FFF795F800BF56495348FFF771F9002894
:10185000F9D001221A215048FFF7DFF800BF5049A4
:10186000491C4D48FFF764F90028F8D000214A4888
:10187000FFF795F801214848FFF785F800BF4A496E
:101880004548FFF777F90028F9D04348FFF7C1F83A
:101890004649086001214048FFF781F810BD10B5A6
:1018A00004462146B020FFF746FFFFF7C6FF3F483A
:1018B000006810BD2DE9F04F89B00520FFF761FEEB
:1018C0008F20FFF7ECFF00B2394908800846007806
:1018D00000F0020008800846B0F9000040F0FD006A
:1018E000FF2854D18F20FFF7DAFF40F0FB00FF28DC
:1018F0004DD09420FFF7D3FF06469520FFF7CFFF8A
:1019000007469620FFF7CBFF80469720FFF7C7FFDB
:10191000814647EA06200FFA80FB49EA08200FFAC1
:1019200080FA2448C0F800B02348C0F800A000683E
:1019300001F0C6FF00224FF08043CDE9000101F025
:1019400093F8CDE904011B48006801F0B9FF0022BB
:101950004FF08043CDE9000101F086F8CDE90201A6
:10196000DDE9042301F098FDCDE9060101F058FD01
:1019700004460D4631218020FFF7DDFEB021802096
:10198000FFF7D9FE2046294609B0BDE8F08F0020B8
:101990000146F9E7000C014000540040801A06009F
:1019A00001000300820007004000001088000020B2
:1019B0008C00002090000020940000207047000060
:1019C0000FB4044910B503AA029800F087FA10BCBE
:1019D0005DF814FB2C0000200FB41CB5074B06AAC1
:1019E0007B4469460090059800F05FFA0020694644
:1019F00000F06EFA1CBC5DF814FB0000ED04000062
:101A00002DE9F0410E460446002020622046E168A0
:101A1000884730B3252805D0D4E901219047206AB2
:101A2000401CF2E7E168204600278847050018D0EF
:101A3000A5F14100192802D820354FF4006732463D
:101A4000294620462760FEF78BFB40B1012804D0D1
:101A5000F61D26F007060836D8E7361DD6E72846D5
:101A6000DAE7206ABDE8F081704770477047704739
:101A700010B500F049FA006810BD10B5044600F03A
:101A800043FA046010BD70472DE9FF4F0C461E4617
:101A90004FF0FF378BB0D2E90001DDF860800A908B
:101AA0008A46C1F30A5505B93D46002108464FF064
:101AB0000000BAF1000F00F4400005DA00EB8000EE
:101AC0004FF4400101EA50004FEA9059B9F1010F7B
:101AD00000DDB9460A9850EA4A000ED044F610508C
:101AE000A5F2FF3545432F14B8F1000F1ED0754203
:101AF000291E1EDDC9F100021CE0B8F1010F4FF0F4
:101B0000000001D0302103E0F24305E02154401CE5
:101B1000B042FBDB30460022002121540B99C1F872
:101B20000880C1E900200FB0BDE8F08FBD1B6D1C1F
:101B3000DEE74A4600DA694206A800F06FFA06AB13
:101B400093E8070003AB83E8070050460A9900F0CA
:101B500047FB8DE80700A0F500501F380090039860
:101B6000002D09DD42F21F014A46084403A90390F3
:101B7000684600F0A6FD08E0A0F500504A461F3870
:101B800003A90390684600F0B0FD8DE8070000044B
:101B9000000C03D04FF0FF30410800E01046B8F1D0
:101BA000000F03D00022009215461EE0751E05D4DA
:101BB00000F0AEF9303262556D1EF9D5B346012200
:101BC000084302D000227F1C04E02078302801D195
:101BD00000227F1E002A099786D01DE0112D07DA0A
:101BE00000F096F9303262556D1C50EA0102F5D1D1
:101BF000084302D00098C8B10EE00021681E05E03D
:101C0000235C625C63542254401E491C8142F7DB12
:101C1000AB46A81B401E0990002004F80B000B984F
:101C2000099AC0F80880C0E9002B7CE711264FF024
:101C3000000859E72DE9F04F88460446D21D22F0EE
:101C4000070191B0D1E90001CDE90A0100F083FE5E
:101C500002460B98C00F01D02D2007E020688107B5
:101C600001D52B2002E0202101EAC000032A0990BF
:101C700001D0072A05DB03464146204600F08EF9D5
:101C80000BE12078800601D5E06900E00620B8F17C
:101C9000650F814606D0B8F1660F18D0B8F1670F0E
:101CA00070D131E00020B9F1110F009001DB112358
:101CB00001E009F101030AAA01A90CA8FFF7E4FE5B
:101CC000DDE90C70002609F10105834647E001209B
:101CD0004B4600904FF000470AAA01A90CA8FFF755
:101CE000D3FEDDE90DB00C995D46002610B909F16F
:101CF00001000D18B9EB050003D4C0F1FF3609F15E
:101D00000105A5EB09002BE0B9F1010F01DA4FF055
:101D100001090020B9F1110F0090484601DD11239F
:101D200000E003460AAA01A90CA8FFF7ADFEDDE911
:101D30000C704D4600268346207800070AD4AB4538
:101D400000DA5D4601A8012D04DD411911F8011CDE
:101D5000302907D04F4502DA17F1040F04DA0120C9
:101D600082460FE06D1EEEE7002F02DCED1B3E44C5
:101D700003E0781CA84200DD7D1CB81B00F1010ABD
:101D80004FF000472078000703D4AA4501DB4FF04D
:101D9000FF3A0021B7F1004F0DF143088DF84310D1
:101DA00024D002202B23002F01DA7F422D230A2189
:101DB000021EA0F1010000DC5FB197FBF1FC97FB74
:101DC000F1F201FB1C7C17460CF1300C08F801CD38
:101DD000EEE7A8F1010003702188090501D545212E
:101DE00000E06521A0F1010800F8011C09980FA985
:101DF000A1EB0807FF1D00B10120411901EBEA70BA
:101E0000A1693844081A401EA0612078C00602D497
:101E10002046AFF30080099828B1D4E9012190470A
:101E2000206A401C20622078C00622D52046AFF3ED
:101E300000801EE0002E04DBB34502DD01A8805DBA
:101E400000E03020D4E901219047206A401C206244
:101E5000761CAAF101005FEA000A0AD100F050F8EE
:101E6000C0680168405CD4E901219047206A401CA9
:101E70002062281EA5F10105DCDC07E0D4E9012180
:101E800018F8010B9047206A401C2062381EA7F109
:101E90000107F3DC2046AFF30080032011B043E6D6
:101EA00001694A1C02610878704700B58FB0CDE91E
:101EB00001310021059105497944CDE9031011460E
:101EC0006846FFF79DFD0FB000BD0000E5FFFFFF76
:101ED0000A6802F8010B0A6070470000074B70B5F2
:101EE0000D467B44FFF7E1FF0446284600F004F965
:101EF00010B14FF0FF3070BD204670BD09F7FFFFF5
:101F000000487047B8000020004870479800002043
:101F100030B5B0F10A024FEA900E71F100034EEABB
:101F2000817EB0EB0E0061EB91014FEA101E4EEA8C
:101F3000017E10EB0E0041EB11114FEA102E4EEA1C
:101F4000016E10EB0E0041EB11214FEA104E4EEAEC
:101F5000014E10EB0E0041EB1141401841F1000120
:101F60004FEAD00040EA41704FEAD10110EB800502
:101F70004FEA810444EA907444EB01046D1944EB88
:101F80000404521BA3414FF0000348BF0A3200D59E
:101F900030BD401C41F1000130BD00002DE9F04191
:101FA0001F46044603260168072A01F4006004DB8B
:101FB00008B116A505E016A503E008B115A500E0D7
:101FC00015A521F010002060A069C01EA0610FB10E
:101FD000401EA0612046AFF300804FB1D4E901213B
:101FE00038469047206A401C2062C01C206206E0F0
:101FF000206AFAE7D4E9012115F8010B9047761E13
:10200000F8D22046AFF30080BDE8F0814E414E008B
:102010006E616E00494E4600696E66002DE9F0471C
:10202000814616468AB0334878440DC88DE80D00C5
:1020300030487844801C03AC0DC884E80D0041F69C
:102040009B300844372190FBF1F290FBF1F5A5F1AC
:10205000800501FB12041B3C02D56442012000E014
:102060000020DFF890A080460027FA44AAF1BE0ABB
:102070000DE0E00709D03246684607EB47010AEB5E
:10208000810100F032FB8DE8070064107F1C002CFA
:10209000EFD1184F7F44AC3F18E0E80714D007EBAE
:1020A00004100DF1180A90E80E008AE80E00C068CE
:1020B000F04201D198190890324606A903A800F011
:1020C00014FB03AB83E807006D10641C002DE4D102
:1020D00032466946B8F1000F03A802D000F0F1FAC9
:1020E00001E000F002FBC9E90001C9F808200AB0CC
:1020F000BDE8F08760210000007B00F080007047A1
:1021000000487047980000207546FFF7F9FFAE467B
:1021100005006946534620F00700854618B020B5F3
:10212000FEF74CF8BDE820404FF000064FF00007E6
:102130004FF000084FF0000B21F00701AC46ACE86F
:10214000C009ACE8C009ACE8C009ACE8C0098D46DC
:1021500070470446AFF300802046FEF71BF80000EE
:102160004FF0013C50F8042B51F8043B9A4221D126
:10217000A2EB0C03934313EACC1317D150F8042BB2
:1021800051F8043B9A4215D1A2EB0C03934313EA96
:10219000CC130BD150F8042B51F8043B9A4209D1CF
:1021A000A2EB0C03934313EACC13DBD04FF00000F7
:1021B000704700BFD01A01BAB1FA81F101F01801DD
:1021C00022FA01F0CB40C1F12001DBB2C0B2C01A4B
:1021D0002CFA01F3D11A914311EAC311E6D17047E9
:1021E0005FEA400C08BF91F0000F4FEA8C234FEAE2
:1021F000C12243EA51514FEA1C5018BF00F5F0408C
:102200004FEA300018BF41F000415FEA6C5C00F01B
:102210002980BCF1FF3F08BF40F080407047130C9D
:1022200006BF12044FF0100C4FF0000C130E04BF49
:1022300012020CF1080C130F04BF12010CF1040C74
:10224000930F04BF92000CF1020CD30F04BF520095
:102250000CF1010C11464FF00002A0F11F00A0EBA1
:102260000C00704711F0004F08BF704731F000417B
:102270003FF4D5AF0B0C06BF09044FF0100C4FF024
:10228000000C0B0E04BF09020CF1080C0B0F04BF6D
:1022900009010CF1040C8B0F04BF89000CF1020C36
:1022A000CB0F04BF49000CF1010CCCF12003A0EBD3
:1022B0000C0022FA03F302FA0CF241EA030100F1E6
:1022C0000100704720F07F4C80EA030023F07F4735
:1022D000ACEB070303F57C5300F0004003F1FF0370
:1022E0002DE980494FEA154B09B44FEA144325EA1A
:1022F0000B4E24EA03480FF2042606EB1327490885
:102300003E785FEA320203FB0667C7F5000707FB6A
:1023100006F64FEA54374FEAD64606F1020607FBA7
:10232000066CCCF1005C4FEA1C472CEA074C07FB1B
:1023300006F40CFB06F504EB15464FEA961634BF7F
:1023400000204FF000404FEAD13706FB07FC4FEA70
:102350001C4C0CFB0BF7D21B03FB0CF761EB0701CA
:102360000CFB0EF7B0EB074072EB17420CFB08F7C3
:1023700034BFA2EB0742B2EB074261EB17414FEAD1
:102380000C444FEA910706FB07FC4FEA1C4C0CFB80
:102390000BF7B0EBC74072EB573203FB0CF734BFBF
:1023A000A2EBC742B2EBC74261EB57310CFB0EF711
:1023B000B0EBC70072EB57720CFB08F734BFA2EB0F
:1023C000C702B2EBC70261EB5771039F4FEA81610D
:1023D00041EA921104EBCC044FEAD1374FEA826212
:1023E00006FB07FC42EA90124FEA80604FEA1C4C61
:1023F0000CFB0BF7D21B03FB0CF761EB07010CFB8B
:102400000EF7B0EB074072EB17420CFB08F734BF36
:10241000A2EB0742B2EB074261EB17414FEA8C5542
:102420004FEA910704EB9C2406FB07FC4FEA1C4C87
:102430000CFB0BF7B0EBC74072EB573203FB0CF70A
:1024400034BFA2EBC742B2EBC74261EB57310CFB82
:102450000EF7B0EBC70072EB57720CFB08F734BFF6
:10246000A2EBC702B2EBC70261EB577115EB4C252B
:102470004FEA816141EA92114FEA82624FEAD13715
:1024800042EA901206FB07FC44F100044FEA806028
:102490004FEA1C4C0CFB0BF7D21B03FB0CF761EB58
:1024A00007010CFB0EF7B0EB074072EB17420CFB79
:1024B00008F734BFA2EB0742B2EB074261EB1741CA
:1024C00015EB1C154FEA813141EA92414FEA823205
:1024D00042EA90424FEA80304FEA0C7644F1000421
:1024E00048EA03434EEA0B484FF0000EB2EB080CEB
:1024F00071EB030724BF624639464EEB0E0E4FF0D8
:10250000000B0018524149414BEB0B0BB2EB080C8E
:1025100071EB03077BF1000B24BF624639464EEB9B
:102520000E0E4FF0000B0018524149414BEB0B0BC4
:10253000B2EB080C71EB03077BF1000B24BF624682
:1025400039464EEB0E0E51EA020718BF46F001065F
:1025500016EB0E7655F1000254F1000103D5BDE8EB
:102560008901BDE80088BDE88901BDE80048B619C9
:10257000524141EB0101A3F10103704780807F7E4E
:102580007D7C7B7A797877767675747372717170E9
:102590006F6E6E6D6C6C6B6A6A696868676666659B
:1025A0006464636362616160605F5F5E5E5D5D5C29
:1025B0005C5B5B5A5A59595858575756565555559A
:1025C0005454535352525251515050504F4F4F4EFA
:1025D0004E4D4D4D4C4C4C4B4B4B4A4A4A49494948
:1025E000484848474747474646464545454444448A
:1025F000444343434342424242414141002B26D49B
:10260000770021D01CB54FEA370703B44FF0100014
:102610004FF010014FF000000FBCBDE810400BF16F
:10262000010BBBF1010F08BF5FEA170722BF12F1D0
:10263000010211F101014FF0004143F1000300F0EC
:10264000004043EA00007047F9D35708DAE746EA4A
:10265000064613F1400F4FEA16461FDD13F1200F17
:10266000DFBF16430A46002120335B42C8D0C3F1C6
:10267000200746EA064602FA07F74FEA164646EAF8
:102680000706C3F1200722FA03F201FA07F721FA3D
:1026900003F14FF0000342EA0702B1E746EA0206FF
:1026A00046EA06464FEA164646EA0106BCBF46EA37
:1026B0000646360C4FF000034FF000024FF00001C9
:1026C0009EE72DE9C048934630B491E8380007C82A
:1026D00031EA400C48BF34EA430C03D5FFF7F2FD62
:1026E000FFF78CFFF0BCBDE800882DE9C048934699
:1026F00030B491E8380007C810F0804F08BF13F0DD
:10270000804F03D100F005F8FFF778FFF0BCBDE87B
:10271000008820F07F4780EA030023F07F4C07EB1E
:102720000C03A3F57C5300F00040A3F1FE0392F0EC
:10273000000F00F0B38095F0000F00F077802DE9D6
:1027400001494FEA11404FEA144621EA004800FBD4
:1027500006FC24EA064708FB06F607FB08F800FB20
:1027600007F718EB06484CEB164C4FEA124B18EBE8
:1027700007484FEA15464CEB174022EA0B4E0BFB7D
:1027800006FC25EA06470EFB06F607FB0EFE0BFBD2
:1027900007F71EEB064E4CEB164C4FF000061EEBF7
:1027A000074E4CEB174B18EB0B0840F1000018EBF1
:1027B0000E0B58EB000840F100008F1A4FF000019B
:1027C0003CBFC943661B14BFB5EB040C00213CBFE2
:1027D000C943F61B4FEA17444EEA8E0E27EA04451A
:1027E0004FEA1C4704FB07622CEA074C05FB07F77E
:1027F0000CFB05F604FB0CFC16EB074642EB1742FC
:1028000016EB0C4642EB1C421BEB060658EB020291
:10281000414146EA9E0601D5BDE80189B6195241FB
:1028200041EB0101A3F10103BDE801894FEA144521
:102830004FEA114724EA054621EA074C05FB07F455
:1028400006FB07F70CFB06F105FB0CFC11EB07413F
:1028500044EB17444FEA124711EB0C4144EB1C4484
:1028600022EA074C05FB07F206FB07F70CFB06F60E
:1028700005FB0CFC16EB074642EB174216EB0C4629
:1028800042EB1C456A1854F1000148BF7047B61965
:10289000524141EB0101A3F10103704795F0000F94
:1028A00037D04FEA11424FEA144721EA024624EAA0
:1028B000074C02FB07F106FB07F70CFB06F402FBD3
:1028C0000CFC14EB074441EB17414FEA154714EB9E
:1028D0000C4441EB1C4125EA074C02FB07F506FBC3
:1028E00007F70CFB06F602FB0CFC16EB074645EB64
:1028F000174516EB0C4645EB1C42121951F100012D
:1029000048BF7047B619524141EB0101A3F10103E1
:1029100070474FEA14454FEA114724EA054621EA79
:10292000074C05FB07F106FB07F70CFB06F24FF01F
:10293000000605FB0CFC12EB074241EB174112EBC2
:102940000C4251EB1C4148BF7047921841EB01010A
:10295000A3F101037047490050EAC12018BF0420C9
:102960004A0D18BF40F0010040F2FF72B2EB515F18
:1029700008BF40F00200012808BF052070472DE97C
:10298000F0414F1E00EBC7010446D1E90001154696
:102990001E4637F006020DD02A46334600F0E4FF0B
:1029A0007F1E04EBC703D3E9002300F075FD37F069
:1029B0000602F1D1022F25D0042F13D0062F18BF05
:1029C000BDE8F0812A46334600F0CEFFD4E90A2361
:1029D00000F062FD2A46334600F0C6FFD4E9082322
:1029E00000F05AFD2A46334600F0BEFFD4E9062324
:1029F00000F052FD2A46334600F0B6FFD4E9042326
:102A000000F04AFD2A46334600F0AEFFD4E9022327
:102A100000F042FD2A46334600F0A6FFD4E9002329
:102A2000BDE8F04100F038BD0022134610460149D0
:102A300000F0EEBD0000F03F00F02EBD0022134676
:102A40001046114600F0E4BD40F2013200204FF084
:102A5000E04101F0CDBA0000024A0020110701F068
:102A6000C7BA000001FDFFFF2DE9F04D16460F46E5
:102A700094B01C4621F0004123F00042002814BF0E
:102A80004FF0010C4FF0000C0CEB470CFE4B0CEB25
:102A900003054FEA630C65452BD3350018BF0125AC
:102AA00005EB44051D44F94B9D4222D3F84B52EAF5
:102AB000060C02D09F4205D148B914B00020194637
:102AC000BDE8F08D002808BF4FF0000C01D04FF09A
:102AD000010C0CEB470313F5001F0AD8002E14BF9E
:102AE0004FF0010C4FF0000C0CEB440313F5001FEA
:102AF00007D914B0324623463946BDE8F04DFFF7FA
:102B00009BBFDFF890834FF0000A002FB8BF42450B
:102B100023DAE14B9A42A8BF4FF0020A1DDADC4BE0
:102B200093421ADCDD4B03EB2253142B08DDC3F177
:102B3000340C26FA0CF303FA0CFCB4450DD108E072
:102B40005EB9C3F1140C22FA0CF303FA0CFC9445A1
:102B500003D103F00103C3F1020A51EA00031BD1C0
:102B6000002C19DA002F18BFBAF1020F02D0BAF107
:102B7000010F07D00220FEF780FF14B0BDE8F04D32
:102B8000FFF752BF0220FEF778FFFFF74DFF14B0AA
:102B900081F00041BDE8F08D330070D1424525D170
:102BA00007F1804212F5801201BF00280020B849C9
:102BB00014B008BFBDE8F08DB548884207DC002C92
:102BC000A1BF1846214614B0BDE8F08D07E0002CE7
:102BD000BFBF184684F0004114B0BDE8F08DB04985
:102BE0007944D1E9000114B0BDE8F08DDFF8A0C24E
:102BF00062452AD1002C24DA39B1414517D1002889
:102C000004BF002002461CD106E040B10220FEF7BE
:102C100034FFFFF719FF0A46394600F0D7BA9D4A3C
:102C2000394614B0002062F31E01BDE8F08D08DAC9
:102C300014B03B46BDE8F04D02460020614600F06E
:102C4000E7BC14B03946BDE8F08D414517DAB4F160
:102C5000804F0CD0A4F10053B3F1FF530FD13B1EB2
:102C60000DDB14B01946BDE8F04D00F0D9BB3B4672
:102C700014B00246BDE8F04D194600F075BE0500DF
:102C800027F000433AD1E1B1414537D1002F06DDAD
:102C9000002CA1BF0020414614B0BDE8F08D002FEC
:102CA00001DD002C1FDB002F16DA002C14DBBAF13B
:102CB000010F4FF0000014BF76497A4914B0BDE807
:102CC000F08DBAF1020F18BF002F0CD0BAF1010F2E
:102CD00009D1002F07DA0BE0002FB8BF002C0DDA66
:102CE000BAF1010F04D0002014B00146BDE8F08D08
:102CF00014B000204FF00041BDE8F08D4FF0010806
:102D000008EBE77CCDF814C05CEA0A0C0DD0DFF8C4
:102D100098C162457EDDDFF894C1654B624512DDE6
:102D20008B420ADB002C18DB23E00120FEF7A5FE16
:102D300014B0BDE8F04DFFF781BE554A8A4202DC6F
:102D4000002C0ADC15E0994202DA002C11DA04E0CA
:102D50004F4B994219DD002C0BDD0220FEF78DFE52
:102D6000FFF772FE4B4A14B061F31E021146BDE834
:102D7000F08D0220FEF781FEFFF76EFE444A14B08C
:102D800061F31E021146BDE8F08D0022394601F0C4
:102D900011F807460D466FF0010201F029F94FF0D6
:102DA0005532444B00F014FF3A462B4600F0DCFD50
:102DB0000022414B00F00CFF80468B463A462B46E2
:102DC0001046194600F0D0FD42465B4600F0CCFDAF
:102DD00088460E904FF0C042384B3846294600F0E6
:102DE000C3FD83460091364A344B41460E9800F0AD
:102DF000BBFD80460191334A334B3846294600F0EB
:102E0000B3FD4246019B00F0D5FF0D4602460B463E
:102E10000C9000E011E05846009900F03DFB0027BF
:102E200088465A463846009B00F0C4FF2B460C9A51
:102E300000F0CEFE024600F079B90020B1F5801F07
:102E400007DA35222846194601F0D2F805466FF018
:102E5000340000EB2150A0F2FF300190C1F31300C9
:102E600040F07F6141F04051029118498842D8BF3B
:102E70004FF0000B35DD16498142C8BF4FF0010B02
:102E80002FDC4FF0000B25E0FFFF1F00FFFF0F00BE
:102E90000000F03F0000F07F0000404301FCFFFF16
:102EA000241500000000F0FF0000E0410000F043A6
:102EB000FFFFEF3F5555D53F0000E03F4715F73F77
:102EC000FE822B6544DF5DF80BAE543E8E98030006
:102ED0007AB60B000198401C01900298A0F5801072
:102EE0000290FF480299784400EBCB000991D0E9A9
:102EF000002328460B93129200F05CFF00910A9089
:102F000028460B9B129A099900F0C6FA02460B4616
:102F10000020F44900F07CFBCDE90C010B46024691
:102F200000990A9800F020FD0690EF488846002797
:102F300078440299006810904FF0005040EA610018
:102F400000EB8B4000F5002102910B9B129A109828
:102F500000F030FF2A46099B00F03AFE3A4643460D
:102F600000F002FD0891129038464146029B109AEB
:102F700000F0FAFC009B0A9A00F02AFE089B129AC5
:102F800000F018FFDDE90C2300F0EEFC0B91069A2F
:102F9000129043461046194600F0E6FC05460246EC
:102FA000D2480B460A9106217844FFF7E8FC0A9BB9
:102FB0002A46089102901046194600F0D5FC089B5D
:102FC000029A00F0D1FC054609914346384619465D
:102FD000069A00F061FA0B9B129A00F0C5FC2A4693
:102FE000099B00F059FACDE908013A4643461046DC
:102FF000194600F0B9FC0A910022BD4B009000F088
:103000004BFADDE9082300F047FA0D463A46B84B83
:10301000384600F0CFFE0A9B009A00F0CBFEDDE9B7
:10302000082300F0D5FDCDE908013A462B461046AD
:10303000414600F099FC00910A90DDE90801434601
:10304000069A00F091FC069088462B463A460B996A
:10305000129800F089FC4346069A00F01DFA80465B
:103060000B4602460D9100990A9800F015FA0020CF
:103070000F460546009B0A9A00F09CFE42460D9BB7
:1030800000F0A6FD88460E904FF06042994B28460E
:10309000394600F069FC02910090974A954B4146F1
:1030A0000E9800F061FC80460391944A944B2846A8
:1030B000394600F059FC4246039B00F0EDF9914A75
:1030C0007A4402EBCB03D3E9002300F0E5F905468F
:1030D0000791019800F0F4FB0C9003912A46079B9E
:1030E0000299009800F0D8F9874A7A4402EBCB03A2
:1030F000D3E900239346019300F0CEF9039B0C9A89
:1031000000F0CAF9002788463846039B0C9A00F065
:1031100051FE5A46019B00F04DFE029B009A00F0C2
:1031200049FE2A46079B00F053FD02460020069008
:1031300005986C4DAAF10103184301D1734D069017
:1031400000200B4604903046214600F00DFC8246DC
:103150008B46234630461946049A00F02BFE3A4629
:10316000434600F001FC52465B4600F095F90646E6
:103170008A463A4643462146049800F0F5FB044649
:103180000F463246534600F087F9614A8B4691421A
:1031900021DBABEB020353EA000210D122463B468F
:1031A00000F008FE804603915A4A5B4B3046514678
:1031B00000F072F94246039B00F0D4FC27D20220B3
:1031C000FEF75BFCFFF740FC0A46294614B062F3A9
:1031D0001E01BDE8F08D514B2BF000429A4216D3F0
:1031E0004F4A0BEB020353EA000208D122463B464A
:1031F00000F0E0FD3246534600F0B4FC07D8022050
:10320000FEF73BFCFFF728FC0A462946DEE72BF0D9
:1032100000404449444A01EB20514FF000088242EB
:1032200023DA481C4FF4801121FA00F058443F4A39
:10323000C0F30A517A443E4BA1F2FF31CB4020EA61
:103240000303C0F3130040F4801CC1F114001268A2
:103250002CFA00F8BBF1000FB8BFC8F100082046F7
:10326000394600F0A7FD04460F4622463B4630464D
:10327000514600F011F94FF0000B5A462D4B5846BD
:10328000039100F071FB00910A902B4A2B4B58469A
:10329000039900F069FB0491029022463B46584690
:1032A000039900F087FD3246534600F091FC244A12
:1032B000244B00F059FB049B029A00F0EDF80746FE
:1032C0008A46009B0A9A00F0E7F804460E46009BE7
:1032D0000A9A00F06FFD3A46534600F079FC33E05D
:1032E000961100000000F03FD4110000041100000E
:1032F0000000084009C7EE3FFD033ADCF5015B140E
:10330000E02F3EBEDC0F0000A20F00000000F0BF67
:1033100000009040FE822B654715973C00CC904002
:1033200000346F3F01FCFFFF0000E03FD00E0000C3
:10333000FFFF0F00432EE63F396CA80C615C20BEF6
:10334000EF39FAFE422EE63F0746224633460F91FA
:103350001046194600F008FB834602462E488A466E
:103360000B4605217844FFF70AFB5A46534600F006
:10337000FBFA2246334600F02BFC82468B463A4647
:10338000204631460F9B00F0EFFA3A460F9B00F0C3
:1033900083F80F460A9000224FF08043504659466A
:1033A00000F008FD0391009052465B4620463146EE
:1033B00000F0DAFA039B009A00F02AF93B460A9AD9
:1033C00000F0F8FC2246334600F0F4FC0022134BD8
:1033D00000F0FEFB0E46044601EB085108150028DC
:1033E00010DC42462046314600F002FEFFF7B3FAF9
:1033F000042808BFFFF730FB42462046314600F064
:10340000F7FD044606980B4614B022462946BDE84F
:10341000F04D00F0A9BA0000780D00000000F03F68
:103420002DE9F04106460F4600F0DEFB04000D4694
:1034300018BF0120284320F00040C0F17F6000F158
:10344000E040C00F0ED0301C18BF0120384320F0E0
:103450000040C0F17F6000F1E040C00F04BF0120D8
:10346000FEF70BFB20462946BDE8F08110B5002988
:103470000AD00878002807D005487844FEF770FE87
:10348000002801D0002010BD0248784410BD000083
:103490004A0D0000420D000010B591EA030F48BF2D
:1034A00083F0004300F18E84841A71EB030C05D283
:1034B000121943EB0C03001B61EB0C01DFF824E154
:1034C0004FEA1154A4EB135C1EEA430F18BF9EEAA7
:1034D000445F73D023EA0E03DCF1200E21EA04518D
:1034E00043F4801332D322FA0CFE10EB0E0023FAC1
:1034F0000CFE41EB0E01CCF1200E03FA0EFE10EB98
:103500000E0051F10001B1F5801FCCF1200E32D236
:1035100001EB045112FA0EF2BDE8104058BF70479B
:10352000401C38BF5FEA420218BF7047002814BF32
:1035300020F0010041F100014FEA410313F5001FA3
:1035400038BF7047A1F1C04100F006BB012A43EB30
:103550000302ACF1200CDCF11F0E32BF4FF0000E65
:1035600023FA0CF310EB030041EB0451B4EB115FB1
:10357000D0D0A1EB045101F5801149085FEA300079
:1035800001EB04510ED350F1000038BF12FA0EFEC9
:1035900008D1BDE81040C9E7401C38BF5FEA4202CD
:1035A000CAD1C3E7BDE810404FEA410313F5001F3D
:1035B00038BF7047A1F1C04100F0CEBA9EEA445F27
:1035C00008D011EA5E0FBDE8104004BF01F00041D1
:1035D00000207047BDE8104070B500F06FFA00BFE2
:1035E00064FBBE3E0000E0FF02494FF0000000F027
:1035F000CDBC00BF0000F87F491058BFC1F1404169
:103600005B1058BFC3F140438B42EFF3008070471B
:103610002DE9C04130B4DFF8A0C23CEA111418BF54
:103620003CEA131400F0EC8081EA03051CEA111453
:1036300044EAD57418BF1CEA131500F0C780A4EB48
:1036400005044FF0004545EAC12145EAC32341EA9C
:10365000505143EA525304F17F74994204F5003407
:103660004FEAC0204FEAC22208BF904200F09C807F
:103670004FEA13650FF24016765D4FEA134506FBDD
:1036800005F7C7F1807706FB07F74FEAD737A7FBA7
:1036900003687642C8F58038A7FB06CE38BFA8F18C
:1036A000010807FB08E64FF0000EA6FB028CE6FBC4
:1036B00003CEDCF1000CCEF1004E38BFAEF1010EAE
:1036C000A6FB0C584FF000074FF00005E6FB0E87F5
:1036D000A1FB08C6A0FB07CE16EB0E0645F10005C0
:1036E000E1FB076515F1E04E7EBFA4F580345FEA8B
:1036F00046066D4116F1800745F100054FEA172790
:103700004FEA066647EA0567A6F1DE46B6F1805F36
:103710004FEA15251FD9384624F0010C05EBC4717A
:10372000BCF1FE6F01EB0C1102D8F0BCBDE80081CA
:1037300024425CBF01F5801E9EEAC47F02D4F0BC27
:10374000BDE80081244238D4F0BCA1F1C041BDE8FD
:10375000004100F001BA4FEAD22242EA43524FEA56
:10376000D323A7FB02864FEAD02040EA415007FB53
:1037700003661EEA0E0F4FEAD12105FB026658BF11
:10378000A6EB0056B6EB00564FEA520E4EEAC37E49
:1037900018EB0E0E56EB530EBDD518EB02085E412A
:1037A0007F1C55F10005B6E74FF480154FF0000778
:1037B0004FF000064FF00008ADE7F0BC4FF00000FE
:1037C00001F1C04101F00041BDE8008111EA0C1F88
:1037D0000CEA131500D00CE013EA0C1F00F0258052
:1037E0004FF00000F0BC81EA030101F00041BDE8A8
:1037F0000081F0BCBDE8004181EA030100F0ACB9F2
:10380000F0BCBDE8004170B500F058F9097EFC3EFF
:1038100000F007B881EA03014FF0000001F0004119
:10382000704781EA030100F097B9F0BCBDE80041A0
:103830004FF0000021497047FFFDFBF9F7F5F4F266
:10384000F0EEEDEBE9E8E6E4E3E1E0DEDDDBDAD83B
:10385000D7D5D4D3D1D0CFCDCCCBCAC8C7C6C5C499
:10386000C2C1C0BFBEBDBCBBBAB9B8B7B6B5B4B3B0
:10387000B2B1B0AFAEADACABAAA9A8A8A7A6A5A49B
:10388000A3A3A2A1A09F9F9E9D9C9C9B9A9999985F
:103890009797969595949393929191908F8F8E8E02
:1038A0008D8C8C8B8B8A898988888787868585848F
:1038B00084838382828181800000FF070000F87F7B
:1038C00010F0004248BF4042B0FA80F310FA03F112
:1038D0000AD0C3F11D0303F580634FEA415002EBA8
:1038E000035202EBD12170474FF0000070470000F7
:1038F00051EA030C17D41CF5801F58BFBCF5801F7C
:1039000000F10680994218BF704708BF9042704787
:1039100007D711F5801F58BF13F5801F19D499429E
:103920007047894270471CF5801F08D5BCF5801F81
:10393000F7D58B4218BF704708BF824270474FF4DB
:10394000001C1CEB410F38BF1CEB430F01D28B4214
:10395000704770B500F0B2F8922449004FF0005162
:103960004FF08053FFF748BEDFF848C170B51CEA3E
:10397000111E1EBF1CEA13159EEA0C0F95EA0C0FD0
:1039800000F06F8081EA030423EA4C134EEAD47EF0
:1039900021EA4C1141F4801143F48013AE44A1FBA1
:1039A000024CA0FB0365AEF17F7E361955EB0C058A
:1039B000A1FB034C4CF10003A0FB021C16EB0C0610
:1039C000654153F10003094218BF46F0010613F4A4
:1039D000007F0BD14FEA03314FEA0530340341EA4F
:1039E000155140EA16506FF003020AE04FEAC32176
:1039F0004FEAC520F40241EA555140EA56506FF0B3
:103A0000020202EB2E4201EB025585EACE710AD08A
:103A10005FEA440C18BF24F0004450F1000041F16B
:103A2000000120EAD47040F2FE7C624500D270BDF5
:103A3000A84214BF4FF080444FF04044002E08BF0E
:103A40000024BEF1806FA8BFA1F1C041BDE8704065
:103A500080F282804FF0000001F1C04101F000418E
:103A600070479EEA0C0F0CEA131518BF95EA0C0F6D
:103A700006D04FF0000081EA030E0EF0004170BD49
:103A800000F01CF88900013E00F007B800F009B80A
:103A90004FEA430C5FEA5C5C08D081EA030100F066
:103AA0005BB84FEA410C5FEA5C5CF6D14FF0000076
:103AB000014970470000FF070000F87F0EF1020E79
:103AC0002EF0030E5EF8046B364205D4012A43EB58
:103AD000030515F5001F12D8012841EB010C1CF558
:103AE000001F0CD80ED14FEAD17C15F5001F0CEB4E
:103AF0004C0C0CF1020C08BF4CEBD37C04E04FF0F3
:103B0000080C01E04FEAD37C0CEB4C0526FA05F6D5
:103B100006F00706B6F1040C06D20EEB860CBDE8E3
:103B200070404CF0010C6047DFE80CF0090B02021A
:103B30004FF000414FF00000A1F5002170BD194683
:103B40001046012851EB010418BFD4F5001484BFBE
:103B5000002001F0004170BD0808A0F500114FEAF7
:103B60003101704753EA010C17D41CF5801F58BF70
:103B7000BCF5801F00F106808B4218BF704708BF5C
:103B80008242704707D713F5801F58BF11F5801F79
:103B900019D48B4270479B4270471CF5801F08D593
:103BA000BCF5801FF7D5994218BF704708BF9042F7
:103BB00070474FF4001C1CEB430F38BF1CEB410F48
:103BC00001D2994270470FB40CBC03BCFFF7C1BED1
:103BD00091EA030F10B581F000413FF565AC83F029
:103BE000004300F0EFB800002DE9F04101F5801C22
:103BF000BCF5001FC0F2C3804FEA115C21EA0C51F2
:103C00000CF1FD0C41F480115FEA5C0C0CF5C07CFA
:103C100001D3400049413DA4890241EA9051870205
:103C20008E0E0A0CA45D04FB04F602FB06F6C6F138
:103C30004046A4FB0662F60D46EA422606FB06F461
:103C4000A4FB01235242C3F1404338BF5B1EA6FBD5
:103C500002420024E6FB0324D20B42EA4446A6FBC0
:103C60000623A1FB02E2A3FB07E4A4184FF0000225
:103C700052F10002E3FB01426442C2F1404E38BF00
:103C8000AEF1010EA6FB04234FF00002E6FB0E325C
:103C9000A2FB03464FF00004B61954F10004E2FB06
:103CA0000264A1FB06E6A4FB07E816EB08064FF04A
:103CB000000858F10008E4FB01687642C8F140585A
:103CC00038BFA8F10108A2FB06E4A3FB08E52D1903
:103CD0004FF0000454F10004E2FB0854A1FB05E698
:103CE000A7FB04E818EB06084FF0000656F10006A3
:103CF000E1FB048618F1200556F10006A809A8F199
:103D00001B08B10908F03F08B8F10A0F40EA8660C5
:103D10001CD901EB0C51BDE8F08100BFFCF5EEE8C9
:103D2000E2DDD8D3CFCBC7C3C0BDB9B6B4B1AEAC5A
:103D3000A9A7A5A3A19F9D9B9A9896959392908FD2
:103D40008D8C8B898887868584838281A0FB00681F
:103D500000FB01F208EB4208B8EB872807D53418BE
:103D600058EB0104D5D5401C51F10001D1E7341ABC
:103D700078EB0104CDD4401E71F10001C9E75FEA80
:103D80004C0C5FEA9C5C0DD105D34FF0000001F0B4
:103D90000041BDE8F081BDE8F04170B5FFF78EFE4F
:103DA0006DDBFFBEBDE8F0414FF0000000497047F9
:103DB0000000F87F10B591EA030F48BF83F000437D
:103DC0003FF572AB841A71EB030C07D212198CF019
:103DD000004C43EB0C03001B61EB0C01DFF8A4E18A
:103DE0004FEA1154A4EB135C1EEA430F18BF9EEA7E
:103DF000445F00F0B08023EA6E03524221EA04518E
:103E0000C3EB6E0338BF5B1EDCF1200E25D322FA14
:103E10000CFE10EB0E0043FA0CFE41EB0E01CCF150
:103E2000200E03FA0EFE10EB0E0051F10001CCF152
:103E3000200E29D412FA0EF201EB0451BDE8104015
:103E400058BF7047401C1CBFB2F1004F704700289C
:103E50000CBF491C20F00100704712EB020E43EB2F
:103E6000030218BF4FF0010E4EEA4202ACF1200CE3
:103E7000DCF11E0E54D943FA0CFE10EB0E0051F18A
:103E8000FF31CCF11E0ED5D50EF1010E12FA0EFE49
:103E9000404141EB010101EB445C5FEA5C5C10D9FD
:103EA00010EBDE7001EB045138BFBEF1004FBDE8EE
:103EB000104018BF704700280CBF491C20F00100BB
:103EC000704730D24FEAD42C11F5001124F400646D
:103ED0001BD0B1FA81F20B3AA41AA41ED2F120032E
:103EE000914030FA03F31943904001EBCC71002C60
:103EF00001EB0451BDE81040A8BF704701F1C0417B
:103F00004FF0000001F000417047B0FA80F310FA62
:103F100003F100D110BDE41A173C4805C90AE4E7D3
:103F200001EB045110BD491001EB0451BDE81040F4
:103F30004FEA300002E04FF0000170474A0008BF2E
:103F40000042F8D0B2F5001F28BF704701F00041D1
:103F50004FF0000070479EEA445F07D011EA5E0F01
:103F6000BDE8104004BF002100207047BDE81040AC
:103F700070B5FFF7A3FD00BF40DFF63E83F00041C0
:103F8000104670470000E0FFFDF754BE0CF00F0331
:103F9000092B08BF082000F059800A2B0BD0082BF2
:103FA00018BF704708BF1CF0400F0AD04FF0000048
:103FB0004FF0000170471CF0400F18BF4FF0004059
:103FC00070471CF0100F08D020F0704300F07F42C3
:103FD00042EAD3014FEA4370704700F0604021F09D
:103FE0007F4242EA000201F07F4040EA727070476F
:103FF0004FF0FF0C4CF4E06C1CEA11531CBF9CEA20
:10400000030C9445C2BFDA4201EB02517047002B0A
:104010000DD0BCF1000F0FD0002A01F00041A4BF69
:1040200041F0E04141F07F614FF00000704701F046
:1040300000414FF00000704750EA01334FF09B0CF5
:1040400018BF4CF0806C7FF4CFAA70471CF4801F1F
:1040500011D01CF4E02F03D06FEACC314900704737
:104060004FF04050EFF3008222F0704242EA00022B
:1040700082F3008870474FF0000070470000000096
:10408000000000000000F03F000000000000F83FCA
:1040900000000000000000000000004003B8E23F04
:1040A000000000000000000006D0CF43EBFD4C3EB6
:1040B000033333333333E33FFFAB6FDBB66DDB3FAB
:1040C0004D268F515555D53F01411DA96074D13FF3
:1040D00065DBC9934A86CD3FEF4E454A287ECA3FED
:1040E0003E5555555555C53F93BDBE166CC166BF6F
:1040F0002CDE25AF6A56113FF16BD2C541BDBBBE68
:10410000D0A4BE726937663E0000000000000000C7
:1041100002400000000000A0000000000540000078
:10412000000000C8000000000C4000000000409C9F
:1041300000000000194000000020BCBE000000008C
:1041400034400000BFC91B8E00000004B5400000D1
:10415000504BCFD06607E2CF010000006C41000059
:104160003E8251AADFEEA73401000000D9420000D0
:10417000DCB5A0E23A301F97FFFFFFFFB445000017
:10418000FD25A0C8E9A3C14FFFFFFFFFFF3F0000CF
:104190000000008000000000FF3F000000000080E1
:1041A00000000000E041000800000020980000002E
:1041B00028010008784200089800002060060000EE
:1041C000440100081C00000043000000F8FFFFFF4E
:1041D0000C0000000E0000000F0000002E00000088
:1041E00000A24A04000000000000000001020304D5
:1041F000060708090000000001020304010203048D
:10420000060708090204060800000000000000007C
:104210000000000000000000496D706564616E637D
:10422000653A000000000000303030302E30303071
:1042300030204B6F686D000050686173653A000074
:10424000000000000000000030303020204465678E
:104250007265650000000000000000000000000022
:104260003A2C30793BF7353E00000000000000009A
:08427000000000000000000046
:04000005080000ED02
:00000001FF
